{
  "contractName": "Election",
  "abi": [
    {
      "inputs": [],
      "stateMutability": "nonpayable",
      "type": "constructor"
    },
    {
      "inputs": [],
      "name": "candidateCount",
      "outputs": [
        {
          "internalType": "uint256",
          "name": "",
          "type": "uint256"
        }
      ],
      "stateMutability": "view",
      "type": "function"
    },
    {
      "inputs": [
        {
          "internalType": "uint256",
          "name": "",
          "type": "uint256"
        }
      ],
      "name": "candidates",
      "outputs": [
        {
          "internalType": "uint256",
          "name": "id",
          "type": "uint256"
        },
        {
          "internalType": "string",
          "name": "name",
          "type": "string"
        },
        {
          "internalType": "uint256",
          "name": "voteCount",
          "type": "uint256"
        }
      ],
      "stateMutability": "view",
      "type": "function"
    }
  ],
  "bytecode": "0x608060405234801561001057600080fd5b5061005e6040518060400160405280600b81526020017f63616e64696461746520310000000000000000000000000000000000000000008152506100b0640100000000026401000000009004565b6100ab6040518060400160405280600b81526020017f63616e64696461746520320000000000000000000000000000000000000000008152506100b0640100000000026401000000009004565b6101d6565b600160008154809291906001019190505550604051806060016040528060015481526020018281526020016000815250600080600154815260200190815260200160002060008201518160000155602082015181600101908051906020019061011a92919061012b565b506040820151816002015590505050565b828054600181600116156101000203166002900490600052602060002090601f01602090048101928261016157600085556101a8565b82601f1061017a57805160ff19168380011785556101a8565b828001600101855582156101a8579182015b828111156101a757825182559160200191906001019061018c565b5b5090506101b591906101b9565b5090565b5b808211156101d25760008160009055506001016101ba565b5090565b610229806101e56000396000f3fe608060405234801561001057600080fd5b5060043610610053576000357c0100000000000000000000000000000000000000000000000000000000900480633477ee2e14610058578063a9a981a31461010d575b600080fd5b6100846004803603602081101561006e57600080fd5b810190808035906020019092919050505061012b565b6040518084815260200180602001838152602001828103825284818151815260200191508051906020019080838360005b838110156100d05780820151818401526020810190506100b5565b50505050905090810190601f1680156100fd5780820380516001836020036101000a031916815260200191505b5094505050505060405180910390f35b6101156101ed565b6040518082815260200191505060405180910390f35b6000602052806000526040600020600091509050806000015490806001018054600181600116156101000203166002900480601f0160208091040260200160405190810160405280929190818152602001828054600181600116156101000203166002900480156101dd5780601f106101b2576101008083540402835291602001916101dd565b820191906000526020600020905b8154815290600101906020018083116101c057829003601f168201915b5050505050908060020154905083565b6001548156fea26469706673582212201a7dac4883eb3db7936bf8f60d767a359731f31a6cf0a1de37abbc3e94a4f3bd64736f6c63430007040033",
  "immutableReferences": {},
  "source": "// SPDX-License-Identifier: MIT\r\npragma solidity ^0.7.4;\r\n\r\ncontract Election{\r\n    // Model a candidate\r\n    struct Candidate {\r\n        uint id;\r\n        string name;\r\n        uint voteCount;\r\n    }\r\n    // Store candidate \r\n    // Fetch Candidate\r\n    mapping(uint => Candidate) public candidates;\r\n    // Constructor\r\n    uint public candidateCount;\r\n\r\n    constructor() {\r\n        addCandidate(\"candidate 1\");\r\n        addCandidate(\"candidate 2\");\r\n    }\r\n\r\n    function addCandidate (string memory __name) private {\r\n        // The number of candidates will be increased by 1\r\n        candidateCount++;\r\n        // Add to the list of candidate with another named candidate\r\n        candidates[candidateCount] = Candidate(candidateCount, __name, 0);\r\n    }\r\n}\r\n\r\n// Election.deployed().then(function(instance){app=instance})",
  "sourcePath": "D:/Programming Languages/JS/projects/steganography-html/app/truffle/contracts/Election.sol",
  "compiler": {
    "name": "solc",
    "version": "0.7.4+commit.3f05b770.Linux.g++"
  },
  "schemaVersion": "3.3.3",
  "updatedAt": "2021-01-12T09:46:17.846Z",
  "devdoc": {
    "kind": "dev",
    "methods": {},
    "version": 1
  },
  "userdoc": {
    "kind": "user",
    "methods": {},
    "version": 1
  }
}