{
  "contractName": "HelloWorld",
  "abi": [
    {
      "inputs": [],
      "name": "greeting",
      "outputs": [
        {
          "internalType": "string",
          "name": "",
          "type": "string"
        }
      ],
      "stateMutability": "view",
      "type": "function"
    },
    {
      "inputs": [
        {
          "internalType": "string",
          "name": "__greeting",
          "type": "string"
        }
      ],
      "name": "setGreeting",
      "outputs": [],
      "stateMutability": "nonpayable",
      "type": "function"
    }
  ],
  "bytecode": "0x60806040526040518060400160405280600881526020017f4772656574696e670000000000000000000000000000000000000000000000008152506000908051906020019061004f929190610062565b5034801561005c57600080fd5b5061010d565b828054600181600116156101000203166002900490600052602060002090601f01602090048101928261009857600085556100df565b82601f106100b157805160ff19168380011785556100df565b828001600101855582156100df579182015b828111156100de5782518255916020019190600101906100c3565b5b5090506100ec91906100f0565b5090565b5b808211156101095760008160009055506001016100f1565b5090565b61032f8061011c6000396000f3fe608060405234801561001057600080fd5b5060043610610053576000357c010000000000000000000000000000000000000000000000000000000090048063a413686214610058578063ef690cc014610113575b600080fd5b6101116004803603602081101561006e57600080fd5b810190808035906020019064010000000081111561008b57600080fd5b82018360208201111561009d57600080fd5b803590602001918460018302840111640100000000831117156100bf57600080fd5b91908080601f016020809104026020016040519081016040528093929190818152602001838380828437600081840152601f19601f820116905080830192505050505050509192919290505050610196565b005b61011b6101b0565b6040518080602001828103825283818151815260200191508051906020019080838360005b8381101561015b578082015181840152602081019050610140565b50505050905090810190601f1680156101885780820380516001836020036101000a031916815260200191505b509250505060405180910390f35b80600090805190602001906101ac92919061024e565b5050565b60008054600181600116156101000203166002900480601f0160208091040260200160405190810160405280929190818152602001828054600181600116156101000203166002900480156102465780601f1061021b57610100808354040283529160200191610246565b820191906000526020600020905b81548152906001019060200180831161022957829003601f168201915b505050505081565b828054600181600116156101000203166002900490600052602060002090601f01602090048101928261028457600085556102cb565b82601f1061029d57805160ff19168380011785556102cb565b828001600101855582156102cb579182015b828111156102ca5782518255916020019190600101906102af565b5b5090506102d891906102dc565b5090565b5b808211156102f55760008160009055506001016102dd565b509056fea2646970667358221220b36e04c70ff8d04f5cb3684f4c66aac4c9d8b0f73fcb87f91e983bf03e25df2f64736f6c63430007040033",
  "immutableReferences": {},
  "source": "// SPDX-License-Identifier: MIT\r\npragma solidity ^0.7.4;\r\n\r\ncontract HelloWorld {\r\n    string public greeting = \"Greeting\";\r\n\r\n    function setGreeting(string memory __greeting) public{\r\n        greeting = __greeting;\r\n    }\r\n\r\n}\r\n",
  "sourcePath": "D:/Programming Languages/JS/projects/steganography-html/app/truffle/contracts/HelloWorld.sol",
  "compiler": {
    "name": "solc",
    "version": "0.7.4+commit.3f05b770.Linux.g++"
  },
  "schemaVersion": "3.3.3",
  "updatedAt": "2021-01-12T09:07:27.924Z",
  "devdoc": {
    "kind": "dev",
    "methods": {},
    "version": 1
  },
  "userdoc": {
    "kind": "user",
    "methods": {},
    "version": 1
  }
}